:100000000C947E210C94A9210C94A9210C94A92173
:100010000C94A9210C94A9210C94A9210C94A92138
:100020000C94A9210C94E0E30C94A9210C94A9212F
:100030000C94A9210C943D5F0C94A9210C94A92146
:100040000C94A9210C94715E0C943BE10C94A921B1
:100050000C94C25C0C94EC5C0C94A9210C94A92126
:100060000C94A9210C94A9210C94A9210C94A921E8
:100070000C94A9210C94A9210C94A9210C94A921D8
:100080000C94A9210C94A9210C94A9215BB589B5E4
:10009000B7B5A9B687CA87CA87CA87CA87CA87CAAF
:1000A00087CA87CA87CAE6B525B666B687CA87CA29
:1000B00087CA87CA87CA87CA87CA87CA87CA87CAB8
:1000C00087CA9FB91EBA9DBA1CBB9BBB1ABC99BC00
:1000D00050BD93C307BEABBE4FBFF3BF97C03BC17C
:1000E000DFC171C202C387CA87CA87CA87CA87CAE3
:1000F000FEB787B887CAEAC38CC422C5C7C505C680
:1001000089C6EDC651C7CFC754C8D2C850C994C913
:1001100043C687CA87CA87CA87CA87CA87CA87CA9F
:1001200087CA87CA87CA87CA87CA92B7C7B787CA22
:1001300087CA87CA87CA87CA87CA87CA87CA87CA37
:1001400087CA33B887CA87CA87CAE4C939CA87CA7F
:1001500087CA87CA87CA4DB587CA87CAECB625B78A
:1001600072B713B9084AD73B3BCE016E84BCBFFDC2
:10017000C12F3D6C74319ABD56833DDA3D00C77F77
:1001800011BED9E4BB4C3E916BAAAABE0000008010
:100190003F07634236B79BD8A71A39685618AEBADC
:1001A000AB558C1D3CB7CC5763BD6DEDFD753EF670
:1001B000177231BF000000803F05A84CCDB2D44E6D
:1001C000B93836A9020C50B9918688083CA6AAAA6B
:1001D0002ABE000000803F000001000F0015000E45
:1001E000001200FEFF160017000E001300FFFF03B1
:1001F0000002001A001400FFFFFFFFFFFF0D000CBC
:10020000000400010000000E00070006001F00535C
:100210006574204D6963726F7374657070696E6781
:100220000048656174696E672042656400486561D5
:1002300074696E672045787472756465720046490A
:10024000524D574152455F4E414D453A526570659A
:10025000746965725F302E3931204649524D5741DD
:1002600052455F55524C3A68747470733A2F2F6739
:1002700069746875622E636F6D2F7265706574693D
:1002800065722F52657065746965722D4669726D6D
:10029000776172652F2050524F544F434F4C5F5639
:1002A000455253494F4E3A312E30204D4143484933
:1002B0004E455F545950453A4D656E64656C204516
:1002C000585452554445525F434F554E543A31208D
:1002D00052455045544945525F50524F544F434F39
:1002E0004C3A320044656275673A006F6B000D0A44
:1002F000004E414E00494E46004572726F723A0000
:10030000496E666F3A005761726E696E673A0052C5
:100310006573656E643A004563686F3A006F6B20E1
:100320000057726F6E6720636865636B73756D004D
:100330004D697373696E6720636865636B73756D70
:1003400000466F726D6174206572726F7200446F47
:100350006E65207072696E74696E672066696C657F
:1003600000205800205900205A0020450020460057
:10037000205300205000204900204A002052005302
:10038000442072656164206572726F7200457272FA
:100390006F723A6578706563746564206C696E6528
:1003A000200020676F742000736B69702000424C3E
:1003B0004B2000737461727400506F7765725570D2
:1003C0000045787465726E616C20526573657400C7
:1003D00042726F776E206F7574205265736574007A
:1003E0005761746368646F67205265736574005366
:1003F0006F66747761726520526573657400556E1F
:100400006B6E6F776E20636F6D6D616E643A004640
:100410007265652052414D3A00583A0020583A0022
:1004200020593A00205A3A0020453A00543A002018
:10043000423A0020403A0020540020400020424030
:100440003A0020524157003A002F00202F005370ED
:100450006565644D756C7469706C793A00466C6FB3
:10046000774D756C7469706C793A0046616E737083
:100470006565643A005072696E7465642066696CE3
:10048000616D656E743A005072696E74696E6720B2
:1004900074696D653A006D200020646179732000F5
:1004A00020686F7572732000206D696E00496E764A
:1004B000616C696420617263002C002000593A006D
:1004C0005A3A0045303A0045313A004D53312C4DEF
:1004D00053322050696E7300536574206F757470C9
:1004E0007574200020746F20004820004C20007894
:1004F0005F6D696E3A00785F6D61783A00795F6D83
:10050000696E3A00795F6D61783A007A5F6D696E65
:100510003A007A5F6D61783A004A65726B3A002062
:100520005A4A65726B3A00206C696E65617220737D
:10053000746570733A0020717561647261746963E7
:100540002073746570733A002C2073706565643D88
:1005500000454550524F4D207570646174656400CC
:100560006C696E656172204C3A002071756164722D
:1005700061746963204B3A00546172676574457811
:100580007472005461726765744265643A00504940
:1005900044204175746F74756E6520737461727454
:1005A0000020626961733A200020643A2000206DC7
:1005B000696E3A2000206D61783A2000204B753A30
:1005C00020002054753A200020436C6173736963E6
:1005D0002050494400204B703A2000204B693A20BB
:1005E00000204B643A2000504944204175746F74D8
:1005F000756E65206661696C6564212054656D7057
:100600006572617475726520746F2068696768002F
:10061000504944204175746F74756E652066616938
:100620006C6564212074696D656F75740050494470
:10063000204175746F74756E652066696E697368A4
:100640006564202120506C61636520746865204BCF
:10065000702C204B6920616E64204B6420636F6EA8
:100660007374616E747320696E2074686520436FC3
:100670006E66696775726174696F6E2E68206F723D
:1006800020454550524F4D004D54454D503A00685D
:100690006561746564206265640065787472756470
:1006A000657220003A2074656D702073656E736FFB
:1006B0007220646566656374003A20776F726B69B7
:1006C0006E67005072696E7465722073657420697C
:1006D0006E746F206472792072756E206D6F646520
:1006E00020756E74696C2072657374617274210078
:1006F0004175746F6C6576656C696E6720656E61B7
:10070000626C6564004175746F6C6576656C696ECA
:10071000672064697361626C6564005A2D70726F42
:100720006265206661696C6564005A2D70726F6243
:1007300065206D61783A005072696E746572206848
:1007400065696768743A0077616974004175746F10
:100750006C6576656C206163746976652028312F3D
:10076000302900436F6E66696775726174696F6ED8
:100770002073746F72656420746F20454550524F2A
:100780004D2E00436F6E66696775726174696F6E96
:10079000206C6F616465642066726F6D2045455002
:1007A000524F4D2E00436F6E6669677572617469B2
:1007B0006F6E20726573657420746F206465666166
:1007C000756C74732E0050726F746F636F6C20764B
:1007D000657273696F6E206368616E6765642C2053
:1007E000757067726164696E6700457874722E0077
:1007F0004550523A3020004550523A312000455081
:10080000523A3220004550523A332000426175641A
:10081000726174650046696C616D656E74207072FA
:10082000696E746564205B6D5D005072696E7465FD
:100830007220616374697665205B735D004D617839
:100840002E20696E6163746976652074696D652018
:100850005B6D732C303D6F66665D0053746F702066
:100860007374657070657220616674657220696E5C
:100870006163746976697479205B6D732C303D6FA8
:1008800066665D005820686F6D6520706F73205B31
:100890006D6D5D005920686F6D6520706F73205B12
:1008A0006D6D5D005A20686F6D6520706F73205B01
:1008B0006D6D5D0058206D6178206C656E677468A1
:1008C000205B6D6D5D0059206D6178206C656E67F1
:1008D0007468205B6D6D5D005A206D6178206C65D9
:1008E0006E677468205B6D6D5D0058206261636B9C
:1008F0006C617368205B6D6D5D0059206261636B94
:100900006C617368205B6D6D5D005A206261636B82
:100910006C617368205B6D6D5D004D61782E206A9F
:1009200065726B205B6D6D2F735D004D61782E20BD
:100930005A2D6A65726B205B6D6D2F735D00582DAB
:100940006178697320737465707320706572206DAF
:100950006D00592D61786973207374657073207010
:100960006572206D6D005A2D61786973207374650E
:10097000707320706572206D6D00582D61786973F9
:10098000206D61782E206665656472617465205BF8
:100990006D6D2F735D00592D61786973206D6178DD
:1009A0002E206665656472617465205B6D6D2F73C2
:1009B0005D005A2D61786973206D61782E2066651F
:1009C000656472617465205B6D6D2F735D00582DD9
:1009D0006178697320686F6D696E6720666565640C
:1009E00072617465205B6D6D2F735D00592D6178A8
:1009F000697320686F6D696E6720666565647261F2
:100A00007465205B6D6D2F735D005A2D617869737D
:100A100020686F6D696E67206665656472617465D4
:100A2000205B6D6D2F735D00582D617869732061B7
:100A30006363656C65726174696F6E205B6D6D2FA9
:100A4000735E325D00592D6178697320616363655F
:100A50006C65726174696F6E205B6D6D2F735E32B1
:100A60005D005A2D6178697320616363656C6572FE
:100A70006174696F6E205B6D6D2F735E325D00581F
:100A80002D617869732074726176656C206163638F
:100A9000656C65726174696F6E205B6D6D2F735E3E
:100AA000325D00592D617869732074726176656CCE
:100AB00020616363656C65726174696F6E205B6D44
:100AC0006D2F735E325D005A2D61786973207472E8
:100AD0006176656C20616363656C65726174696FD2
:100AE0006E205B6D6D2F735E325D004F5053206F33
:100AF0007065726174696F6E206D6F6465205B3024
:100B00003D4F66662C313D436C61737369632C32D3
:100B10003D466173745D004F5053206D6F766520C4
:100B200061667465722078252072657472616374E1
:100B3000205B255D004F5053206D696E2E20646947
:100B40007374616E636520666F722066696C2E2017
:100B500072657472616374696F6E205B6D6D5D00A8
:100B60004F50532072657472616374696F6E206CAC
:100B7000656E677468205B6D6D5D004F5053207229
:100B8000657472616374696F6E206261636B6C611E
:100B90007368205B6D6D5D0042656420486561741B
:100BA000204D616E61676572205B302D335D0042C0
:100BB000656420504944206472697665206D6178CF
:100BC0000042656420504944206472697665206D56
:100BD000696E004265642050494420502D67616968
:100BE0006E004265642050494420492D6761696E5A
:100BF000004265642050494420442D6761696E00BD
:100C000042656420504944206D61782076616C759E
:100C100065205B302D3235355D007374657073204F
:100C2000706572206D6D006D61782E20666565645B
:100C300072617465205B6D6D2F735D0073746172FA
:100C400074206665656472617465205B6D6D2F73D9
:100C50005D00616363656C65726174696F6E205BD2
:100C60006D6D2F735E325D0068656174206D616E1D
:100C700061676572205B302D335D0050494420640C
:100C800072697665206D617800504944206472690C
:100C90007665206D696E0050494420502D6761696A
:100CA0006E2F646561642D74696D65005049442040
:100CB000492D6761696E0050494420442D67616980
:100CC0006E00504944206D61782076616C75652016
:100CD0005B302D3235355D00582D6F666673657457
:100CE000205B73746570735D00592D6F6666736564
:100CF00074205B73746570735D0074656D702E2075
:100D000073746162696C697A652074696D65205BD2
:100D1000735D0074656D702E20666F72207265744D
:100D200072616374696F6E207768656E20686561B3
:100D300074696E67205B435D0064697374616E6300
:100D40006520746F207265747261637420776865C2
:100D50006E2068656174696E67205B6D6D5D00650E
:100D60007874727564657220636F6F6C657220733E
:100D700070656564205B302D3235355D00616476C9
:100D8000616E6365204B205B303D6F66665D006180
:100D90006476616E6365204C205B303D6F66665DF6
:100DA00000534420436172642072656D6F76656400
:100DB000005344204361726420696E7365727465E8
:100DC0006400534420696E6974206661696C006533
:100DD00072726F722077726974696E6720746F2007
:100DE00066696C6500426567696E2066696C65209E
:100DF0006C69737400456E642066696C65206C696B
:100E000073740046696C65206F70656E65643A00A6
:100E10002053697A653A0046696C652073656C6594
:100E2000637465640066696C652E6F70656E20661C
:100E300061696C6564005344207072696E74696EF8
:100E400067206279746520004E6F742053442070CF
:100E500072696E74696E67006F70656E2066616995
:100E60006C65642C2046696C653A20005772697481
:100E7000696E6720746F2066696C653A2000446F64
:100E80006E6520736176696E672066696C652E00F9
:100E900046696C652064656C657465640044656CC6
:100EA0006574696F6E206661696C6564004469727F
:100EB0006563746F72792063726561746564004361
:100EC00072656174696F6E206661696C6564005358
:100ED00044206572726F72436F64653A0007061CA6
:100EE000151C140000002243141F1F050F750FC9A5
:100EF0000F3910000000000000891011111D126D43
:100F000012E91200000000A00F5C006009690010E7
:100F1000097900C0088C007008A2002008BD00D02C
:100F200007DE008007050130073401E0066D0190FF
:100F300006B20140060702F0056D02A005E8025066
:100F4000057B0300052B04B004F8046004EB06C025
:100F500003350920037F0B8002650DE001B00E40D0
:100F6000011D0FF000480FC8006C0FA000ED0F60CE
:100F7000FFFE0F48FE0400801AD8009808AC01203C
:100F800007800250065403C80528045805FC0400D5
:100F900005D005B004A4066804780728044C08E8C6
:100FA000032009B003F4097003C80A38039C0BF846
:100FB00002700CB002440D6802180E0802EC0E8894
:100FC00001C00F8800F00F00000400001B540060F7
:100FD00009640010097400C008840070089C002097
:100FE00008B800D007D8008007000130072C01E0C6
:100FF0000668019006AC0140060002F0056802A0F8
:1010000005E0025005740300052404B004F00460F8
:1010100004DC051004E406C0030408700330092052
:1010200003780B8002600DE001A80E4001680FA05C
:1010300000C00F0000E80F60FF0400700DD80048EA
:1010400004AC0158038002D80254038002280438FB
:1010500002FC040002D005C801A4069801780770BC
:10106000014C08480120091801F409F000C80AC819
:10107000009C0BA000700C7000440D3800180E008E
:1010800000EC0EA8FFC00FE8FE0000401F45006006
:10109000094F0010095C00C0086B0070087D00203B
:1010A000089200D007AC008007CC003007DE00E0DB
:1010B00006230190065E014006A601F005FF01A08F
:1010C000056D025005F30200059603B0045A046052
:1010D00004400510044806C0036E077003A80820EA
:1010E00003EB09D002230B8002410C3002390DE0E2
:1010F00001040E9001A20E4001170FF000690FA02D
:1011000000A20F5000C60F0000DD0FB0FFEB0F6014
:10111000FF0400681D4C00500B94005809DC00507F
:10112000082401A8076C012807B401C006FC01705F
:1011300006440228068C02F005D402B8051C038878
:101140000564035805AC033005F40310053C04E8BE
:10115000048404C804CC04A804140590045C05703D
:1011600004A4055804EC053804340620047C060861
:1011700004C406F0030C07D8035407C8039C07B047
:1011800003E40798032C08800374087003BC085814
:1011900003040948034C09300394091803DC0908C7
:1011A00003240AF0026C0AE002B40AC802FC0AB086
:1011B00002440BA0028C0B8802D40B70021C0C584A
:1011C00002640C4002AC0C2802F40C10023C0DF03E
:1011D00001840DD801CC0DB801140E98015C0E707D
:1011E00001A40E4801EC0E1801340FD8007C0F88C2
:1011F00000C40F0800FC0F00000000000000000009
:1012000000000000000000000000000000000000DE
:1012100000000000000000000000000000040000CA
:1012200016D800C006AC0178058002C004540348FB
:10123000042804E803FC049803D0055003A406180E
:10124000037807D8024C08A80220097002F4093874
:1012500002C80A08029C0BD001700C9001440D508A
:1012600001180EF800EC0E8800C00F0000040040CA
:101270001D900060091C01B007A801D00634023897
:1012800006C002C8054C036805D80318056404D8D5
:1012900004F00498047C05600408063004940600F9
:1012A000042007D003AC07A80338088003C40858FB
:1012B0000350093003DC090803680AE002F40AB8A5
:1012C00002800B88020C0C6002980C3002240DF88E
:1012D00001B00DC0013C0E8001C80E3001540FB8A2
:1012E00000B40F2800E00F00000400081D90005813
:1012F000091C01B007A801C80634023006C002C0AC
:10130000054C036805D80318056404D004F004985C
:10131000047C05600408063004940600042007D00D
:1013200003AC07A80338088003C4085803500930E9
:1013300003DC090803680AD802F40AB002800B88AB
:10134000020C0C6002980C3002240DF801B00DC0A4
:10135000013C0E8001C80E3001540FB800B40F28B4
:1013600000E00F00005344206572726F72206669BE
:10137000786564005344206572726F7220646964FA
:10138000206E6F74207265636F766572210053441E
:101390002052656164204572726F720042696E610D
:1013A00072793A00436F6D6D616E64427566666571
:1013B00072000000000000000000000000000000BB
:1013C000000024F403D950C38EB1C2A23D96828B93
:1013D0003582127AE372816CCB66A861015DC758D1
:1013E000EB546151204E1E4B5648C14559431A419A
:1013F000013F093D2F3B7139CD374036C934653344
:101400001432D430A32F802E6B2D632C672B752ABA
:101410008E29B028DC2710274B268F25D9242B2492
:101420008223E0224322AC211A218D200420801F38
:10143000001F841E0C1E971D261DB81C4E1CE61B8B
:10144000821B201BC11A641A0A1AB2195D190A19E3
:10145000B9186A181C18D11788174017FA16B5164C
:1014600073163116F115B31576153A150015C71414
:101470008F1458142214EE13BA138813561325131D
:10148000F612C71299126C1240121512EB11C1110B
:101490009811701148112111FB10D610B1108D1048
:1014A0006910461024100210E10FC00FA00F800F2A
:1014B000610F420F230F060FE80ECB0EAF0E930EF7
:1014C000770E5C0E410E270E0D0EF30DDA0DC10DD9
:1014D000A80D900D780D600D490D320D1B0D050DF9
:1014E000EF0CD90CC30CAE0C990C850C700C5C0C79
:1014F000480C350C210C0E0CFB0BE80BD60BC40B67
:10150000B20BA00B8E0B7D0B6B0B5A0B4A0B390BDE
:10151000290B180B080BF80AE90AD90ACA0ABB0AF0
:10152000AC0A9D0A8E0A800A710A630A550A470AA4
:10153000390A2C0A1E0A110A040AF709EA09DD0908
:10154000D009C409B709AB099F09920987097B092A
:101550006F09630958094C09410936092B0920090B
:1015600015090A090009F508EB08E008D608CC08B7
:10157000C208B808AE08A4089A08900887087D0831
:1015800074086B08610858084F0846083D0834087D
:101590002C0823081A08120809080108F807F007A0
:1015A000E807E007D807D007C807C007B807B007A3
:1015B000A807A1070000420FA1071605D0030D03DD
:1015C0008B022E02E801B2018601630145012C0164
:1015D00017010401F40049646C6500486F6D6520D3
:1015E0005A00486F6D65205900486F6D652058009E
:1015F000537465707065722044697361626C6564D0
:10160000004B696C6C65640055706C6F6164696E49
:10161000672E2E2E005344207072696E74207374EE
:101620006F7070656420627920757365722E00009A
:10163000002110422063308440A550C660E7700846
:101640008129914AA16BB18CC1ADD1CEE1EFF131CD
:1016500012100273325222B5529442F772D6623996
:101660009318837BB35AA3BDD39CC3FFF3DEE3621D
:1016700024433420040114E664C774A44485546AE6
:10168000A54BB528850995EEE5CFF5ACC58DD553AD
:1016900036722611163006D776F6669556B4465B36
:1016A000B77AA719973887DFF7FEE79DD7BCC7C47D
:1016B00048E5588668A7784008611802282338CC86
:1016C000C9EDD98EE9AFF9488969990AA92BB9F50D
:1016D0005AD44AB77A966A711A500A333A122AFDD6
:1016E000DBDCCBBFFB9EEB799B588B3BBB1AABA6DD
:1016F0006C877CE44CC55C222C033C600C411CAE26
:10170000ED8FFDECCDCDDD2AAD0BBD688D499D97EC
:101710007EB66ED55EF44E133E322E511E700E9F75
:10172000FFBEEFDDDFFCCF1BBF3AAF599F788F883C
:1017300091A981CAB1EBA10CD12DC14EF16FE1800D
:1017400010A100C230E3200450254046706760B904
:10175000839893FBA3DAB33DC31CD37FE35EF3B15D
:10176000029012F322D2323542145277625672EA54
:10177000B5CBA5A89589856EF54FE52CD50DC5E2AD
:1017800034C324A01481046674476424540544DBE4
:10179000A7FAB79987B8975FE77EF71DC73CD7D3FD
:1017A00026F2369106B01657667676154634564CB4
:1017B000D96DC90EF92FE9C899E9898AB9ABA9444D
:1017C00058654806782768C018E1088238A3287D44
:1017D000CB5CDB3FEB1EFBF98BD89BBBAB9ABB759D
:1017E0004A545A376A167AF10AD01AB32A923A2E14
:1017F000FD0FED6CDD4DCDAABD8BADE89DC98D26ED
:101800007C076C645C454CA23C832CE01CC10C1F23
:10181000EF3EFF5DCF7CDF9BAFBABFD98FF89F173C
:101820006E367E554E745E932EB23ED10EF01E7C07
:101830003C3E5E2B3D3F2F5B5D3B2C2A225C004EE5
:101840006F206572726F7220666F756E642E004332
:10185000616E2774206F70656E20726F6F742064E4
:1018600069726563746F72792E00496E76616C6976
:101870006420666F726D61742C207265666F726D84
:1018800061742053442E004E6F20636172642C20DB
:1018900077726F6E6720636869702073656C65632B
:1018A000742070696E2C206F722053504920707222
:1018B0006F626C656D3F0043616E277420616363E6
:1018C00065737320534420636172642E20446F203B
:1018D0006E6F74207265666F726D61742E00010602
:1018E0000C00FE030229036300FF000AFE08000249
:1018F0005767A80088008800A8025767F088E8A802
:10190000E888F002576770A8F8A8F8A8700257672F
:101910007088080808887012456560901090600112
:1019200058687088808088780808025767202020CF
:1019300020A87020026767F8FCFC9CFCFCF80257AA
:101940006770F8F8A8F8F870FFFFFFFFFFFFFF03CC
:1019500055652040F840200257672070A8202020BD
:10196000200355652010F810200257672020202002
:10197000A8702004536350F8500257672070A820C5
:10198000A87020025969C0F0E0A0201010080802D9
:101990005969187838282040408080025969808031
:1019A000404020283878180259690808101020A0F3
:1019B000E0F0C00365652848FC50300365653028B9
:1019C000FC4850046363C0D8640463630C6C9803E0
:1019D00065652850FC50280258682070A870A8201F
:1019E00020200365655028FC2850025868202020DC
:1019F000A870A870200365652448F0482403656535
:101A000090483C48900355652848F8482802576795
:101A10002070A8202020F8035565A090F890A0021F
:101A20005767F8202020A870200257672070A82050
:101A3000A870F80365652844F84020036565508860
:101A40007C0810036565204CFC482803656510C8B8
:101A5000FC485003646448DCEC480365650858FCA6
:101A600068400257678090B0D090381002586820C4
:101A700040F848280808080258682010F890A0800C
:101A800080800258680808082848F84020025767F4
:101A90008080A090F81020035464F0103810035593
:101AA00065080848F840035565304848E84803553C
:101AB00065609090B810025868F880E0C0A02010CF
:101AC00010025969A0C0F8C0A818F8182802566674
:101AD0003830A8888870025666E060A8888870054B
:101AE00053632040F8035363F8402022386880C0D5
:101AF000A080808080800238682060A02020202084
:101B0000200553632010F8035363F810202238682F
:101B10008080808080A0C080023868202020202023
:101B2000A060200259692010F8102040F8402002DF
:101B3000586850F05050505078500259692040F881
:101B4000402010F810200259692040F8402040F849
:101B5000402002586850F850505050505002596977
:101B60002010F8102010F8102002586850505050E3
:101B70005050F8500257672040F800F810200257E4
:101B8000672010F800F8402002676714287C907CDA
:101B900020500267670858FCA4FC6840026767A0F1
:101BA00050F824F8102803556520788078200257D3
:101BB000672050D85050505003556520F008F02051
:101BC00002576750505050D8502003656548FC8438
:101BD000FC480258682050D85050D8502002666601
:101BE000F8A0D0A894080266667C142C54A4400285
:101BF000666640A4542C147C0266660894A8D0A0A3
:101C0000F8026767103C40FC403C1002676720F018
:101C100008FC08F02003646440E8D44003646408CE
:101C20005CAC080258682070A82070207020025810
:101C3000682070207020A870200365652040D44083
:101C4000200258682070882000200020036565105D
:101C500008AC08100258682000200020887020037B
:101C60005565A0C0F8C0A00355652818F8182803CA
:101C7000556520788878200258682050D8505050F8
:101C8000507003556520F088F0200258687050505D
:101C90005050D850200259692050D85070007050D0
:101CA000700259692050D8505050D888F8025969AC
:101CB0002050F8885050D888F80259692070F87080
:101CC0007070F8A8F80259692050D850D850505078
:101CD000700259692050D850D850D888F8035565FB
:101CE000A0F088F0A0025868F880B0A09010080812
:101CF00002586880804048286808F80258682050D8
:101D0000D85050D850200365651068FC6810025800
:101D100068507850505050F05002596910F8101027
:101D2000F81010F8100365652848FC48280365651D
:101D30005048FC48500365653078FC783003656591
:101D40003858FC58380365657068FC687003656531
:101D50003078FC78300355652060B8602003556505
:101D60002030E830200365653078B4783006666648
:101D7000FCFCFCFCFCFC006262FCFC006363FCFC01
:101D8000FC006565FCFCFCFCFC006666FCFCFCFCE5
:101D9000FCFC006868FCFCFCFCFCFCFCFC006969C9
:101DA000FCFCFCFCFCFCFCFCFC006B6BFCFCFCFC91
:101DB000FCFCFCFCFCFCFC006C6CFCFCFCFCFCFC7F
:101DC000FCFCFCFCFCFC005C6CF8F8F8F8F8F8F89B
:101DD000F8F8F8F8F8004C6CF0F0F0F0F0F0F0F0F3
:101DE000F0F0F0F0004C6CF0F0F0F0F0F0F0F0F00B
:101DF000F0F0F0003C6CE0E0E0E0E0E0E0E0E0E0AB
:101E0000E0E0002C6CC0C0C0C0C0C0C0C0C0C0C03A
:101E1000C0002C6CC0C0C0C0C0C0C0C0C0C0C0C06A
:101E2000001C6C80808080808080808080808030FA
:101E30003C6CE0E0E0E0E0E0E0E0E0E0E0E0016B0E
:101E40006BA8005400A8005400A80054006C6CA8B3
:101E500054A854A854A854A854A854006C6C54FC1A
:101E6000A8FC54FCA8FC54FCA8FC0A6262FCFC50D0
:101E70001C6C8080808080808080808080800036A4
:101E800066E0E0E0E0E0E0303666E0E0E0E0E0E0A0
:101E9000063666E0E0E0E0E0E0006C6CE0E0E0E008
:101EA000E0E0FCFCFCFCFCFC006C6CE0E0E0E0E052
:101EB000E01C1C1C1C1C1C006C6CFCFCFCFCFCFCDA
:101EC000E0E0E0E0E0E0006C6CFCFCFCFCFCFC1CF6
:101ED0001C1C1C1C1C363666E0E0E0E0E0E0006CF8
:101EE0006C1C1C1C1C1C1CE0E0E0E0E0E0006C6CC6
:101EF0001C1C1C1C1C1CFCFCFCFCFCFC025565F89E
:101F0000F8F8F8F8025565F8888888F80255657081
:101F100088888870025565F888A888F8025565F8A1
:101F200088F888F8025565F8A8A8A8F8025565F859
:101F3000A8F8A8F8025565F8C8A898F8025565F8F9
:101F400098A8C8F8025565F8D8A8D8F8143363E003
:101F5000E0E0143363E0A0E0036565FCFCFCFCFCFE
:101F6000036565FC848484FC114A6AF0F0F0F0F0AB
:101F7000F0F0F0F0F0114A6AF0909090909090900C
:101F800090F00463633C78F00463633C48F00257CC
:101F90006720207070F8F8F80257672020505088AA
:101FA00088F803556520207070F80355652020508F
:101FB00050F812476780C0E0F0E0C08012476780A9
:101FC000C0A090A0C08013356580C0E0C0801335EC
:101FD0006580C0A0C080036565C0F0FCF0C00365EB
:101FE00065C0B08CB0C0025767F8F8F87070202058
:101FF000025767F8888850502020025565F87070A5
:102000002020025565F8505020201247671030708C
:10201000F070301012476710305090503010133568
:10202000652060E060201335652060A060200365B6
:10203000650C3CFC3C0C0365650C34C4340C035546
:10204000652070F870200355652050885020035596
:10205000652050A850200266663048B4B44830026B
:10206000576720505088505020026666304884845C
:10207000483002666620088004401002556570A84A
:10208000A8A8700257677088A8D8A88870026666EA
:102090003078FCFC78300266663068E4E468300230
:1020A000666630589C9C5830026666304884FC78DE
:1020B000300266663078FC84483002666630589C90
:1020C0008448300266663068E484483012596908F2
:1020D000387878F87878380802596980E0F0F0F8B4
:1020E000F0F0E080006C6CFCFCFCFCCC8484CCFC4C
:1020F000FCFCFC006C6CFCFCFCCCB47878B4CCFC34
:10210000FCFC066666FCFCFCCCB47800666678B421
:10211000CCFCFCFC053363204080353363804020D9
:102120003233632040800233638040200563633094
:10213000488402636384483002556508183878F88B
:1021400002556580C0E0F0F8025565F8F0E0C08007
:10215000025565F8783818080255657088888870C7
:10216000025565F8E8E8E8F8025565F8B8B8B8F837
:10217000025565F8F8E8C8F8025565F898B8F8F817
:10218000025565F8A8A8A8F802576720205070A843
:1021900088F802576720207070E8E8F80257672037
:1021A000207070B8B8F8026767304884848448307B
:1021B000025565F8A8E888F8025565F888E8A8F897
:1021C000025565F888B8A8F8025565F8A8B888F8E7
:1021D00002556570A8E888700255657088E8A87097
:1021E0000255657088B8A87002556570A8B88870E7
:1021F000035565F890A0C080035565F84828180875
:1022000003556580C0A090F8144464F09090F013DA
:102210004464F0F0F0F0144464F09090F0144464DE
:10222000F0F0F0F003556508182848F800000000A9
:1022300000000000000000FF00000100416374691D
:102240006F6E3A256C61000310270200C023031053
:10225000270200C4230100000100C8230200000877
:1022600000CA2303ED030400DA2303EE030400E2B3
:102270002303EF030400EA2303FA030400F2230319
:10228000FB030400FA2303FC030400022402000001
:1022900008000A2402000006001A240200000C00B4
:1022A00026245265717565737450617573653A00C3
:1022B0004E6F205344204361726400436F6F6C641F
:1022C0006F776E00507265686561742041425300FB
:1022D0005072656865617420504C41008025000093
:1022E00040380000004B00008070000000960000A5
:1022F000C0DA000000E10000002C010008B201007B
:1023000000C2010000F401000084030090D003002B
:1023100000E803000008070020A1070000100E00DD
:1023200040420F0060E316000000000002000009B8
:10233000003E24502457244F6E004F6666005965B6
:1023400073004E6F00030004004E2F4100003A005E
:10235000206461797320000042616E6742616E679C
:1023600000536C6F7742616E67004465616420546E
:10237000696D6500504944005072696E74696E67FA
:102380002E2E2E002064656620000000003FCDCC7C
:102390004C3D0AD7A33B6F12033A5072696E7465C5
:1023A000722072656164792E00FFD0FFE0FFCFFFDD
:1023B00064FFD1FF32380C060201FF64FFD0FFFE3C
:1023C0005E2465246C2473247A247A24812488244E
:1023D0008F2496249D24A424AB24B224B924C024A1
:1023E000C724CE24D524DC24E324EA24F124F824D1
:1023F000FF2406250D2514251B25222529253025FA
:1024000037253E2545254C2553257A245A25612517
:1024100068256F2576257D2584257A248B259225B0
:102420009925A025A7257A245A25AE25B525BC25B2
:10243000C325CA25D125D825DF25E625A0257A2460
:10244000ED258124F425FB250226092610261726D2
:1024500000000006001E2600000004002A26322686
:10246000000000000040260000000000512600008F
:102470000000005F260000000000702603E8030053
:1024800000772603F5030102822603F60302048E79
:10249000260354040200992603F7030400A8260328
:1024A000F8030100B52603F9030001C02603F40375
:1024B0000102CC260000000000D52600000000002C
:1024C000E5260000000000F5260000000000F626CA
:1024D0000000000000FF2600000000000F270000A1
:1024E0000000001F2700000000002027000000005F
:1024F00000292700000000003927000000000049E3
:102500002700000000004A270000000000532700B9
:102510000000000063270000000000732700000097
:102520000000742700000000007D2700000000006C
:102530008D2700000000009D2700000000009E275E
:102540000000000000A7270000000000B7270000DF
:10255000000000C7270000000000C82703FD03009B
:1025600010D127041F040000E3270448040000F5ED
:10257000270337040000012803470400000D280347
:1025800038040000162803420400102628043C04E6
:1025900000003628043D0400004628033A040000E9
:1025A000552802642800006B2803430400007628A5
:1025B00003FE0300107D2803FF030010842803009E
:1025C0000400108B28027822000097280263220062
:1025D00000A228027F220000AE28026A220000B971
:1025E000280286220000C5280271220000D028029D
:1025F0008D220000DF28029B220000E8280294229E
:102600000000F12802FB2800000229025C220000E1
:102610000A2902142900001B290229290000302957
:1026200037293E2945294C2953295A2961296829E6
:102630006F29436F6E66696775726174696F6E00AA
:1026400073746F72656420696E20454550524F4D1A
:1026500000436F6E66696775726174696F6E006CB6
:102660006F6164656420662E20454550524F4D00D1
:102670004261636B2001005072696E742066696C60
:1026800065005061757365205072696E74005374F3
:102690006F70205072696E7400436F6E74696E754E
:1026A00065205072696E7400556E6D6F756E742082
:1026B00043617264004D6F756E74204361726400F3
:1026C00044656C6574652066696C6500583A2578C8
:1026D00030206D6D004D696E20656E6473746F708F
:1026E0003A257378004D617820656E6473746F705D
:1026F0003A2573580000593A257831206D6D004D08
:10270000696E20656E6473746F703A257379004D3D
:10271000617820656E6473746F703A257359000098
:102720005A3A257832206D6D004D696E20656E64D1
:1027300073746F703A25737A004D617820656E640A
:1027400073746F703A25735A0000583A2578302018
:102750006D6D004D696E20656E6473746F703A25FF
:102760007378004D617820656E6473746F703A25DC
:1027700073580000593A257831206D6D004D696E0F
:1027800020656E6473746F703A257379004D6178BB
:1027900020656E6473746F703A25735900005A3A5D
:1027A000257832206D6D004D696E20656E647374FE
:1027B0006F703A25737A004D617820656E6473748A
:1027C0006F703A25735A0000486F6D6520416C6C3C
:1027D000005370656564204D756C2E3A256F6D252C
:1027E000252500466C6F77204D756C2E203A256F9D
:1027F00066252525005072656865617420504C413E
:1028000000507265686561742041425300436F6FE8
:102810006C646F776E0044697361626C65207374D9
:102820006570706572004265642054656D703A2071
:1028300025456202430054656D702E20313A2020F8
:102840002545300243004578747275646572203105
:10285000204F666600457874722E20706F7369741D
:10286000696F6E0003F00302007629536574204FF0
:10287000726967696E00486F6D65205800486F6D1A
:1028800065205900486F6D65205A005820506F73BD
:102890002E2046617374005820506F736974696FFD
:1028A0006E005920506F732E2046617374005920BA
:1028B000506F736974696F6E005A20506F732E20C9
:1028C00046617374005A20506F736974696F6E00AB
:1028D000517569636B2053657474696E677300503A
:1028E0006F736974696F6E00457874727564657290
:1028F0000046616E20737065656400020000070089
:102900007A295344204361726400446562756767A5
:10291000696E670002000005008829436F6E6669D2
:102920006775726174696F6E00020000070092297A
:10293000A0290000000000B1290000000000C42907
:102940000000000000D5290000000000E029000080
:10295000000000E8290000000000EC290000000051
:1029600000FA290000000000FE2900000000000F0E
:102970002A0000000000152A1C2A7A24232A2A2A69
:10298000312A382A3F2A462A7A244D2A542A5B2A99
:10299000622A7A24692A702A772A7E2A852A8C2A32
:1029A0000A202565302F254530B020583A2578304B
:1029B0000020202020202020202020202020593AE4
:1029C000257831000E202565622F254562B0205AFA
:1029D0003A257832004D756C3A256F6D2525250016
:1029E0004275663A256F4200256F73005072696E1A
:1029F00074696E672074696D6500255574004669B9
:102A00006C616D656E74207072696E74656400250A
:102A10005566206D00932A00000000009C2A0000EB
:102A2000000000AB2A0452040000BC2A031A040868
:102A300000C92A031B040000D72A031C040000E578
:102A40002A031D040000F32A031E040000002B03C8
:102A5000320400000C2B0333040000182B03340451
:102A60000000242B0335040000302B02382B00001B
:102A70003F2B024C2B0000532B025C2B0000632BDE
:102A8000026C2B0000732B0306040000832B03074A
:102A9000040000453A257833206D6D003120636CC9
:102AA00069636B203D2031206D6D0046616E20739F
:102AB000706565643A254673252525005475726E48
:102AC0002046616E204F6666005365742046616E35
:102AD000203235252525005365742046616E20354A
:102AE00030252525005365742046616E2037352535
:102AF0002525005365742046616E2046756C6C0078
:102B00004563686F2020203A25646F00496E666F28
:102B10002020203A256469004572726F7273203A52
:102B2000256465004472792072756E3A25646400EC
:102B300047656E6572616C000200000400922B41D3
:102B40006363656C65726174696F6E0002000009F1
:102B5000009A2B4665656472617465000200000787
:102B600000AC2B4578747275646572000200000F2A
:102B700000BA2B53746F726520746F204545505214
:102B80004F4D004C6F616420662E20454550524FDA
:102B90004D007A24D82BDF2BE62B7A24ED2BF42B57
:102BA000FB2B022C092C102C172C1E2C7A24252CE4
:102BB0002C2C332C3A2C412C482C7A244F2C562C7C
:102BC0005D2C642C6B2C722C792C802C872C8E2CF9
:102BD000952C9C2CA32CAA2CB12C0410040000BE14
:102BE0002C02CF2C0000D62C02E42C0000EB2C048D
:102BF00008040000F72C0409040000032D040A0453
:102C000000000F2D040B0400001B2D040C04000019
:102C1000272D040D040000332D040E0400003F2D69
:102C2000040F0400004B2D0414040000552D04155E
:102C30000400005F2D0416040000692D0411040037
:102C400000742D04120400007F2D04130400008A78
:102C50002D0429040000972D042C040000A42D0449
:102C60002B040000AF2D042A040000B92D042E040B
:102C70000000C72D044D040000DA2D044C040000B0
:102C8000EB2D042D040000F72D0422040000042E77
:102C900004230400000E2E0424040000182E042532
:102CA000040000262E0426040000342E042F040005
:102CB0000042617564726174653A256F63005374F4
:102CC000657070657220496E616374697665000392
:102CD00020040200402E4D61782E20496E616374FD
:102CE000697665000358040200442E5072696E74C0
:102CF00020583A256178005072696E7420593A253F
:102D00006179005072696E74205A3A25617A004DDB
:102D10006F76652058203A256158004D6F76652002
:102D200059203A256159004D6F7665205A203A2581
:102D3000615A004A65726B2020203A25616A005A68
:102D40002D4A65726B203A25614A004D6178205802
:102D50003A256678004D617820593A256679004D0C
:102D60006178205A3A25667A00486F6D6520583A96
:102D700025665800486F6D6520593A256659004808
:102D80006F6D65205A3A25665A0053746570732F2B
:102D90004D4D3A2553650053746172742046523A82
:102DA000255866004D61782046523A255846004124
:102DB0006363656C3A25584100537461622E54690F
:102DC0006D653A255877005761697420556E6974AE
:102DD000733A20255855206D6D0057616974205451
:102DE000656D702E20255854024300436F6E747237
:102DF0006F6C3A2558680044542F50494420503A8B
:102E00002558700050494420493A255869005049D6
:102E10004420443A255864004472697665204D691F
:102E20006E3A25586D004472697665204D61783A96
:102E300025584D00504944204D61783A25584400AA
:102E4000482E4F2E562E5D2E642E0000000000737B
:102E50002E00000000007D2E00000000008C2E00DF
:102E6000000000004469732E2041667465723A25A3
:102E70006973005B735D20303D4F66660044697383
:102E80002E2041667465723A256970005B735D207F
:102E9000303D4F66660000050700FF06024803BA92
:102EA00000FFFF08FF06FF050505050000A80088D4
:102EB00000A80508080600000808082848F840206F
:102EC00003030306010440A040050505060000F8C1
:102ED000F8F8F8F8050505060000F8888888F80570
:102EE00008080600002050505070F8F870070505DB
:102EF0000900001CFE8282FE0508080600008850BA
:102F0000208820508888060808060000489048FC61
:102F1000FC783030060808060000244824FCFC78C1
:102F20003030060505060000FCFC78303006020251
:102F3000060000FCFC06060606000048904890FCCF
:102F4000FC06060606000024482448FCFC07070788
:102F5000070000824438283844820707070700002A
:102F6000101038EE381010FFFFFFFFFFFFFFFFFFCC
:102F7000FFFFFFFFFFFFFF00000005040001060642
:102F8000050200808080800080030303050103A008
:102F9000A0A005050505000050F850F850050505EE
:102FA00005000070A07028700406060500008090DF
:102FB0002040901004050505000040A040A05001ED
:102FC000030305020380808002060605010040809D
:102FD000808080400206060501008040404040801D
:102FE000030505050100A040E040A005050505001A
:102FF000002020F820200303030501FF6040800427
:103000000101050002F0020202050100C0C0040433
:10301000040500011020408003060605010040A0C1
:10302000A0A0A04003060605010040C0404040E0CB
:103030000406060500006090102040F00406060516
:103040000000F0106010906004060605000020608B
:10305000A0F02020040606050000F080E01090603B
:103060000406060500006080E090906004060605F6
:103070000000F0102020404004060605000060908B
:1030800060909060040606050000609090701060EB
:10309000020505050100C0C000C0C003060605000A
:1030A000FF6060006040800305050501002040804E
:1030B0004020040303050001F000F00305050501AD
:1030C00000804020408003060605010040A020400B
:1030D00000400406060500006090B0B08060040661
:1030E00006050000609090F0909004060605000030
:1030F000E090E09090E0040606050000609080807B
:103100009060040606050000E090909090E00406B0
:1031100006050000F080E08080F00406060500004F
:10312000F080E0808080040606050000609080B09A
:1031300090700406060500009090F09090900306B1
:1031400006050100E040404040E00406060500009E
:1031500010101010906004060605000090A0C0C07A
:10316000A0900406060500008080808080F00406A0
:103170000605000090F0F09090900406060500000F
:1031800090D0D0B0B09004060605000060909090FA
:103190009060040606050000E09090E0808004073F
:1031A000070500FF60909090D060100406060500AF
:1031B00000E09090E0A090040606050000609040BA
:1031C000209060030606050100E0404040404004B6
:1031D0000606050000909090909060040606050099
:1031E000009090909060600406060500009090901A
:1031F000F0F0900406060500009090606090900347
:103200000606050100A0A0A04040400406060500F7
:1032100000F010204080F0030606050100E08080E9
:103220008080E004040405000180402010030606AD
:10323000050100E020202020E003020205010440F7
:10324000A0040101050000F0020202050104804013
:103250000404040500007090B05004060605000048
:103260008080E09090E003040405000060808060AE
:103270000406060500001010709090700404040508
:10328000000060B0C060040606050000205040E069
:1032900040400405050500FF70906080700406063C
:1032A0000500008080E09090900306060501004034
:1032B00000C04040E00307070501FF200020202058
:1032C000A0400406060500008080A0C0A090030670
:1032D00006050100C040404040E004040405000031
:1032E000A0F09090040404050000E0909090040485
:1032F00004050000609090600405050500FFE09063
:1033000090E0800405050500FF70909070100404A3
:1033100004050000E090808004040405000070C0F3
:1033200030E00406060500004040E0404030040460
:103330000405000090909070030404050100A0A013
:10334000A0400404040500009090F0F0040404057B
:103350000000906060900405050500FF90905020EB
:1033600040040404050000F02040F00306060501B7
:10337000002040C0404020010606050200808080F9
:103380008080800306060501008040604040800484
:10339000020205000450A0FFFFFFFFFFFFFFFFFF39
:1033A000FFFFFFFFFFFFFFFFFFFFFFFFFFFFFFFF2D
:1033B000FFFFFFFFFFFFFFFF000000050400010605
:1033C000060502008000808080800406060500FF5C
:1033D0002070A0A070200405050500003040E040EA
:1033E000B0050505050000887050708803060605C5
:1033F0000100A0A040E040400105050502008080DA
:103400000080800307070501FF6080C0A06020C026
:10341000030101050105A00507070500FF7088A845
:10342000C8A8887003030305000360A060050303B8
:10343000050001489048040202050001F010030154
:1034400001050102E00507070500FF7088E8C8C80C
:103450008870040101050005F00303030501034022
:10346000A0400506060500002020F82020F80204F0
:1034700004050102C04080C0020404050102C0C06E
:1034800040C002020205010440800405050500FF5A
:10349000909090E08004060605000070D0D0505057
:1034A00050020202050102C0C00202020501FF40F3
:1034B0008003040405010240C040E003030305004B
:1034C0000340A0400503030500019048900407074E
:1034D0000500FF808080903070100407070500FF12
:1034E000808080B01020300407070500FFC0C04076
:1034F000D030701003060605010040004080A04057
:10350000040606050000609090F090900406060501
:103510000000609090F09090040606050000609016
:1035200090F09090040606050000609090F0909056
:10353000040606050000906090F0909004060605D1
:103540000000606090F0909004060605000070A0F6
:10355000B0E0A0B00407070500FF60908080906095
:1035600040040606050000F080E08080F0040606B6
:10357000050000F080E08080F0040606050000F001
:1035800080E08080F0040606050000F080E0808086
:10359000F0030606050100E040404040E003060657
:1035A000050100E040404040E0030606050100E060
:1035B00040404040E0030606050100E04040404036
:1035C000E0040606050000E050D05050E004060676
:1035D000050000B090D0B0B0900406060500006071
:1035E0009090909060040606050000609090909086
:1035F0006004060605000060909090906004060646
:103600000500006090909090600406060500009010
:103610006090909060040404050000906060900445
:10362000060605000070B0B0D0D0E0040606050024
:103630000090909090906004060605000090909095
:1036400090906004060605000090909090906004B1
:1036500006060500009000909090600306060501A4
:1036600000A0A0A040404004060605000080E090B5
:10367000E080800406060500006090A09090A00401
:10368000060605000040207090B0500406060500B4
:103690000020407090B050040606050000205070D5
:1036A00090B05004060605000050A07090B0500481
:1036B000060605000050007090B050040606050094
:1036C0000060607090B05004040405000070B0A069
:1036D000700305050501FF60808060400406060553
:1036E0000000402060B0C0600406060500002040D5
:1036F00060B0C06004060605000040A060B0C06075
:10370000040606050000A00060B0C06003060605C0
:1037100001008040C04040E00306060501004080F3
:10372000C04040E003060605010040A0C04040E064
:10373000030606050100A000C04040E0040606059F
:10374000000040306090906004060605000050A024
:10375000E090909004060605000040206090906084
:1037600004060605000020406090906004060605EF
:10377000000060006090906004060605000050A004
:103780006090906004060605000050006090906014
:103790000405050500006000F00060040404050055
:1037A0000070B0D0E0040606050000402090909024
:1037B00070040606050000204090909070040606F4
:1037C000050000600090909070040606050000500F
:1037D00000909090700407070500FF2040909050E3
:1037E00020400406060500FF80E09090E08004077A
:1037F000070500FF5000909050204000070A00FE8F
:1038000007026903FB00FFFE08FE07FE0507070627
:103810000000A80088008800A80508080600000825
:1038200008082848F8402003030306010440A0408C
:10383000050505060000F8F8F8F8F8050505060086
:1038400000F8888888F805080806000020505050C5
:1038500070F8F8700705050900001CFE8282FE055D
:10386000080806000088502088205088880608082C
:10387000060000489048FCFC783030060808060036
:1038800000244824FCFC783030060505060000FCC6
:10389000FC783030060202060000FCFC0606060634
:1038A000000048904890FCFC0606060600002448EC
:1038B0002448FCFC070707070000824438283844E6
:1038C00082070707070000101038EE381010FFFFBE
:1038D000FFFFFFFFFFFFFFFFFFFFFFFFFFFF0000F6
:1038E000000605FF01070706020080808080800037
:1038F00080030303060104A0A0A00507070600003B
:103900005050F850F850500507070600002070A0EE
:103910007028702006080806000044A448102048BB
:10392000948805070706000040A0A040A890680101
:10393000030306020480808003070706010020407D
:10394000808080402003070706010080402020205F
:1039500040800505050600018850F85088050505DA
:103960000600012020F820200303030601FF604029
:1039700080040101060103F00202020601FFC0C03B
:10398000050707060000080810204080800507078B
:103990000600002050888888502005070706000090
:1039A0002060A0202020F805070706000070880886
:1039B000304080F8050707060000F8081030088836
:1039C0007005070706000010305090F8101005072A
:1039D00007060000F880B0C80888700507070600D1
:1039E00000304080B0C88870050707060000F8085E
:1039F0001010204040050707060000708888708876
:103A00008870050707060000708898680810600233
:103A10000505060201C0C000C0C00307070601FF7C
:103A200040E040006040800407070601001020408D
:103A300080402010050303060002F800F804070781
:103A40000601008040201020408005070706000086
:103A50007088102020002005070706000070889855
:103A6000A8B0807005070706000020508888F888F5
:103A700088050707060000F04848704848F0050729
:103A800007060000708880808088700507070600A0
:103A900000F04848484848F0050707060000F8804D
:103AA00080F08080F8050707060000F88080F0802D
:103AB0008080050707060000708880809888700560
:103AC0000707060000888888F888888803070706A3
:103AD0000100E04040404040E00507070600003894
:103AE0001010101090600507070600008890A0C015
:103AF000A09088050707060000808080808080F8FD
:103B00000507070600008888D8A888888805070761
:103B10000600008888C8A89888880507070600005E
:103B200070888888888870050707060000F08888F4
:103B3000F08080800508080600FF7088888888A8C3
:103B40007008050707060000F08888F0A090880537
:103B50000707060000708880700888700507070650
:103B60000000F820202020202005070706000088FC
:103B7000888888888870050707060000888888502C
:103B8000505020050707060000888888A8A8D88814
:103B90000507070600008888502050888805070719
:103BA0000600008888502020202005070706000016
:103BB000F80810204080F8030707060100E0808025
:103BC000808080E005070706000080804020100804
:103BD00008030707060100E02020202020E005035D
:103BE000030600042050880501010600FFF80202C8
:103BF0000206020680400505050600007008788868
:103C0000780507070600008080B0C888C8B00505A1
:103C10000506000070888088700507070600000808
:103C20000868988898680505050600007088F8807F
:103C300070050707060000304840F0404040050787
:103C4000070600FE78888878088870050707060050
:103C5000008080B0C88888880307070601004000FC
:103C6000C0404040E00409090601FE100030101079
:103C70001090906005070706000080808890E09013
:103C800088030707060100C04040404040E00505AA
:103C900005060000D0A8A8A888050505060000B004
:103CA000C888888805050506000070888888700522
:103CB00007070600FEB0C888C8B080800507070661
:103CC00000FE68988898680808050505060000B099
:103CD000C880808005050506000070807008F0052A
:103CE00007070600004040F0404048300505050643
:103CF00000008888889868050505060000888850B7
:103D000050200505050600008888A8A8500505056F
:103D100006000088502050880507070600FE8888A6
:103D20009868088870050505060000F8102040F81E
:103D3000040707060100304020C02040300107077B
:103D400006020080808080808080040707060100D2
:103D5000C02040304020C005030306000448A8905E
:103D6000FFFFFFFFFFFFFFFFFFFFFFFFFFFFFFFF63
:103D7000FFFFFFFFFFFFFFFFFFFFFFFFFFFFFFFF53
:103D8000FFFF010707060200800080808080800519
:103D900007070600FF2078A0A0A0782005070706E7
:103DA0000000304840E04048B005050506000088A6
:103DB000705070880508080600FF88885020F82099
:103DC0002020010707060200808080008080800597
:103DD00008080600FF7080E0904838087003010171
:103DE000060107A00507070600007088A8C8A88874
:103DF000700406060601017090B05000F00605053B
:103E00000600002448904824040202060102F01033
:103E1000FF0507070600007088E8C8C8887005011C
:103E200001060007F803030306010440A04005064D
:103E3000060600002020F82020F8040505060103EE
:103E400060902040F0040505060103E0106010E0DA
:103E50000202020602064080FF05070706000078FE
:103E6000E8E868282828010101060203800202020E
:103E70000602FE408003050506010340C04040E005
:103E80000406060601016090906000F00605050634
:103E9000000090482448900609090600FF40C040F1
:103EA00040E40C143C040609090600FF40C04040F1
:103EB000E81404081C0509090600FFC0204020C8BA
:103EC00018287808050707060000200020204088F1
:103ED000700508080600004020708888F88888056A
:103EE00008080600001020708888F88888050808EF
:103EF0000600002050708888F888880508080600A9
:103F00000048B0708888F8888805080806000050C6
:103F100000708888F888880508080600002050701E
:103F20008888F888880607070600003C50909CF0B7
:103F3000909C0509090600FE7088808080887020AA
:103F40004005080806000040F88080F08080F805F1
:103F5000080806000010F88080F08080F805080846
:103F600006000020F88080F08080F8050808060030
:103F70000050F88080F08080F80308080601008077
:103F800040E040404040E00308080601002040E0D7
:103F900040404040E003080806010040A0E04040E7
:103FA0004040E0030808060100A000E04040404017
:103FB000E0050707060000F04848E84848F0050813
:103FC00008060000285088C8A898888805080806B0
:103FD0000000402070888888887005080806000066
:103FE0001020708888888870050808060000205016
:103FF0007088888888700508080600002850708836
:104000008888887005080806000050007088888835
:1040100088700505050600008850205088050707B0
:10402000060000709898A8C8C87005080806000027
:1040300040208888888888700508080600001020BD
:104040008888888888700508080600002050008845
:1040500088888870050808060000500088888888CD
:10406000887005080806000010208888502020204D
:1040700005070706000080F088F0808080050707AC
:10408000060000708890A09088B00508080600001F
:104090004020007008788878050808060000102085
:1040A0000070087888780508080600002050007025
:1040B00008788878050808060000285000700878FD
:1040C0008878050707060000500070087888780592
:1040D000080806000020502070087888780605053A
:1040E00006000078147C907C0507070600FE7088A7
:1040F0008088702040050808060000402000708875
:10410000F880700508080600001020007088F8800C
:10411000700508080600002050007088F8807005BF
:10412000070706000050007088F880700308080632
:104130000100804000C0404040E003080806010044
:10414000408000C0404040E003080806010040A055
:1041500000C0404040E0030707060100A000C04047
:104160004040E0050707060000C03070888888706E
:10417000050808060000285000B0C888888805088F
:10418000080600004020007088888870050808062E
:10419000000010200070888888700508080600005C
:1041A0002050007088888870050808060000285094
:1041B0000070888888700507070600005000708826
:1041C0008888700505050600012000F80020050517
:1041D000050600007898A8C8F00508080600004009
:1041E00020008888889868050808060000102000CC
:1041F000888888986805080806000020500088888C
:104200008898680507070600005000888888986825
:104210000509090600FE102088889868088870053E
:1042200008080600FE80F0888888F080800509096B
:104230000600FE50008888986808887000002100F9
:10424000240027002A0000002200250028002B005F
:1042500000002000230026002900020202020202C0
:104260000202040404040404040403030303030318
:1042700003030101010101010101010204081020F1
:104280004080010204081020408001020408102030
:10429000408080402010080402010000000102005C
:1042A00000000000000004030706000000000000FA
:1042B0000000000000000000000002494E46494E88
:1042C0004954594E414ECDCCCC3D0AD7233C17B76B
:1042D000D13877CC2B329595E6241FB14F0A0000D8
:1042E00020410000C84200401C4620BCBE4CCA1BF6
:1042F0000E5AAEC59D742D5E3D8A6BB311241FBE50
:10430000CFEFD0E4DEBFCDBF16E0A0E0B1E0E2EB3E
:10431000F8ED01E00BBF02C007900D92AA34B1077F
:10432000D9F71BBE17E1AAE4B6E001C01D92A23086
:10433000B107E1F712E4CCEFD2E404C02297FE010A
:104340000E9409ECC63FD107C9F70E946AE30C94AA
:1043500057EC0C940000CF93DF93BC0182309105A1
:1043600010F462E070E0A091FE16B091FF16ED012E
:10437000E0E0F0E040E050E021C0888199818617BC
:10438000970769F48A819B81309719F09383828320
:1043900004C09093FF168093FE16FE0134C0681788
:1043A000790738F44115510519F08417950708F479
:1043B000AC01FE018A819B819C01E9012097E9F60D
:1043C00041155105A9F1CA01861B970B049708F402
:1043D000BA01E0E0F0E02AC08D919C91119784171A
:1043E0009507F9F46417750781F412968D919C91E5
:1043F0001397309719F09383828304C09093FF162C
:104400008093FE16FD0132964CC0CA01861B970BA5
:10441000FD01E80FF91F6193719302978D939C93AF
:1044200040C0FD01828193819C01D9011097A1F6C2
:104430008091FC169091FD16892B41F48091160114
:10444000909117019093FD168093FC1640911801EE
:10445000509119014115510541F44DB75EB7809156
:10446000140190911501481B590B2091FC163091B5
:10447000FD16CA01821B930B8617970780F0AB01CC
:104480004E5F5F4F8417950750F0420F531F5093B4
:10449000FD164093FC16F9016193719302C0E0E0B0
:1044A000F0E0CF01DF91CF910895CF93DF93009794
:1044B00009F450C0EC0122971B821A82A091FE16CB
:1044C000B091FF16109709F140E050E0AC17BD071E
:1044D00008F1BB83AA83FE0121913191E20FF31F02
:1044E000AE17BF0779F48D919C911197280F391F52
:1044F0002E5F3F4F3983288312968D919C9113979D
:104500009B838A834115510571F4D093FF16C093A4
:10451000FE1620C012968D919C911397AD010097C5
:1045200011F0DC01D3CFFA01D383C2832191319101
:10453000E20FF31FCE17DF0769F488819981280FF6
:10454000391F2E5F3F4FFA01318320838A819B817F
:1045500093838283DF91CF910895A0E0B0E0E3EBF5
:10456000F2E20C9426ECEC015B016115710519F087
:10457000FB0191838083F9908F2D90E00E940DECD8
:10458000892BC9F7FDE2FF1621F4F990EE24E3949C
:1045900005C02BE2F21609F4F990EE248E010150C9
:1045A0001040C8016BEB72E443E050E00E943C25F0
:1045B000892B01F58E010E5F1F4FC8016EEB72E46F
:1045C00045E050E00E943C25892B19F48E01095FDB
:1045D0001F4FA114B10419F0F50111830083E0FC11
:1045E00004C070E090E080E814C070E090E080E8E3
:1045F0006FEF08C1C80163EC72E443E050E00E9431
:104600003C25892B69F4A114B10429F470E090E0F1
:1046100080EC6FE7F7C02296F501D183C083F6CF17
:104620008824992440E050E060E070E0EF2DE053F2
:10463000EA30A0F5F2E0EF2A8E2D90E09C01287080
:104640003070E2FE06C0232B79F50894811C911C82
:104650002BC0232B19F0089481089108DB01CA01B3
:1046600012E0880F991FAA1FBB1F1A95D1F7480F98
:10467000591F6A1F7B1F440F551F661F771F4E0F60
:10468000511D611D711D483929E9520729E9620749
:1046900029E1720748F084E0E82A06C0EE3F31F4D1
:1046A000E3FC39C098E0E92AF990C0CFE53311F076
:1046B000E53189F529912D3219F4E0E1EE2A05C0A2
:1046C0002B3219F081E090E003C0299182E090E064
:1046D000E22FE053EA3018F0C81BD90B1CC020E0D1
:1046E00030E0FCE020383F075CF4C901880F991FD7
:1046F000880F991F280F391F220F331F2E0F311DCE
:10470000E991E053EA3068F3E4FE03C03095219567
:104710003F4F820E931ECE2CDD24E1FE07C0A11474
:10472000B10421F02197F501D183C083CB01BA01F7
:104730000E9452E87B018C01F3E0CF22DD2423E0CC
:10474000C216D10421F417FB109517F910955701E3
:104750006801C801B70120E030E040E050E00E946D
:1047600081E7882309F44AC097FE0DC02AEDE22EA6
:1047700022E4F22E9094819491089394C0E2D0E0C8
:1047800000E010E012C092EFE92E92E4F92EF6CF8D
:10479000F7012591359145915491C601B5010E94CB
:1047A00095EA5B016C018C1A9D0A8C169D0684F7B4
:1047B000D595C7950F5F1F4F0630110529F08CEF77
:1047C0009FEFE80EF91EF1CFC501D6017C018D01E6
:1047D0008C2D880F8D2D881F8F3F51F0C601B5019C
:1047E00020E030E040E050E00E9481E7882331F48F
:1047F00082E290E090930117809300177E2D9F2D09
:10480000802F612F272F392F482F562FB901CA012A
:10481000CDB7DEB7ECE00C9442EC2F923F925F9262
:104820006F927F928F929F92AF92BF92CF92DF92C0
:10483000EF92FF920F931F93CF93DF938C011B0195
:10484000EA016115710519F0FB01918380832097BE
:1048500049F0CE010297839728F020E030E040E055
:1048600050E0F6C0F801A1908F018A2D90E00E94DF
:104870000DEC892BB9F7FDE2AF1631F4F801A190E8
:104880008F015524539407C0FBE2AF1619F4F801C9
:10489000A1908F015524209719F0C031D105C1F4A2
:1048A000F0E3AF1679F4F8018081883711F088358C
:1048B00049F4F801A1800E5F1F4FF2E05F2AC0E1CA
:1048C000D0E006C0209721F480E3A816E9F427C0C1
:1048D000C830D10531F1C930D10524F4C230D10539
:1048E00031F50CC0CA30D10589F0C031D105F9F4D9
:1048F000C12CD12CE12CB8E0FB2E28C0C12CD12C2E
:10490000E12CA0E4FA2E22C0CAE0D0E0FCECCF2ECD
:10491000FCECDF2EFCECEF2EFCE0FF2E17C0C8E015
:10492000D0E0C12CD12CE12CE0E1FE2E0FC09E0185
:10493000442737FD4095542F60E070E080E090E818
:104940000E94BEEBC901DA016C017D0120E030E07C
:1049500040E050E060E03E01882477FC8094982C91
:1049600070EDB72EBA0CE9E0EB1570F48A2D815486
:104970008A3118F499ECB92E06C08A2D81568A31F5
:1049800050F589EAB82EBA0C8B2D90E08C179D0754
:1049900014F56F3FE1F0C216D306E406F506B0F059
:1049A000CA01B901A40193010E946BEB9B01AC0108
:1049B0002B0D311D411D511D2130F0E03F07F0E06E
:1049C0004F07F0E85F0710F461E001C06FEFF801F6
:1049D000A1908F01C5CF2114310481F0662331F0FD
:1049E00001501040F1011183008308C051FE1AC02C
:1049F00002501040F1011183008314C067FF12C000
:104A000050FC05C02FEF3FEF4FEF5FE704C020E001
:104A100030E040E050E882E290E09093011780930C
:104A2000001716C050FE08C050954095309521954E
:104A30003F4F4F4F5F4F0CC057FF0AC082E290E0DC
:104A400090930117809300172FEF3FEF4FEF5FE731
:104A5000B901CA01DF91CF911F910F91FF90EF90A3
:104A6000DF90CF90BF90AF909F908F907F906F908E
:104A70005F903F902F900895FB01DC014150504022
:104A800088F08D9181341CF08B350CF4805E65913B
:104A900061341CF06B350CF4605E861B611171F3A0
:104AA000990B0895881BFCCFFB01DC0102C001902B
:104AB0000D9241505040D8F70895FB01DC010D9054
:104AC0000020E9F7119701900D920020E1F7089579
:104AD000FC018191861721F08823D9F79927089541
:104AE0003197CF010895FB01DC018D910190801970
:104AF0000110D9F3990B0895FB01DC0101900D928F
:104B00000020E1F70895FB01DC014150504048F0DE
:104B100001900D920020C9F701C01D9241505040F4
:104B2000E0F70895FC0181E090E00190061609F499
:104B3000CF010020D1F701970895A0E0B0E0E3EAAB
:104B4000F5E20C942AEC7C01EB018A01690109C0B1
:104B5000CE012196F6010995F70181937F0101505D
:104B6000104001151105A1F7CDB7DEB7E8E00C94B0
:104B700046ECBF92CF92DF92EF92FF920F931F937A
:104B80007B018C01FB010995B82EC8010196F70144
:104B90000995C82EC8010296F7010995D82EC801BB
:104BA0000396F7010995982F6B2D7C2D8D2D1F9164
:104BB0000F91FF90EF90DF90CF90BF900895DF921C
:104BC000EF92FF920F931F937B018C01FB010995DC
:104BD000D82EC8010196F7010995982F8D2D1F91A8
:104BE0000F91FF90EF90DF900895A0E0B0E0EBEF21
:104BF000F5E20C942AECEC017B018A01690109C001
:104C0000CE012196F70161917F01F60109950150CE
:104C1000104001151105A1F7CDB7DEB7E8E00C94FF
:104C200046ECBF92CF92DF92EF92FF920F931F93C9
:104C3000D52EC62EB72E79018C01642FF901099566
:104C4000C80101966D2DF7010995C80102966C2DDA
:104C5000F7010995C80103966B2DF70109951F917E
:104C60000F91FF90EF90DF90CF90BF900895DF926B
:104C7000EF92FF920F931F93D72E7A018C01FA01C6
:104C80000995C80101966D2DF70109951F910F91A6
:104C9000FF90EF90DF9008959C01F999FECF32BD0F
:104CA00021BDF89A80B50895089560911A01709118
:104CB0001B0180911C0190911D016817790744F434
:104CC00070931D0160931C018FE094E00E947D377A
:104CD0000895BC01893191051CF469E170E005C0BB
:104CE000893C910514F068EC70E07093EA106093D1
:104CF000E9108DE594E00E947D370895EF92FF92D0
:104D00000F931F93CF93DF93EC01893191051CF42E
:104D1000C9E1D0E006C081E0C53FD80714F0C4EF78
:104D2000D1E0BE01882777FD8095982F0E9454E836
:104D30007B018C016091E7107091E810882777FD66
:104D40008095982F0E9454E89B01AC01C801B701DF
:104D50000E9488E79B01AC016091E3107091E41020
:104D60008091E5109091E6100E9495EA6093E3101F
:104D70007093E4108093E5109093E610D093E810C0
:104D8000C093E7108EE494E0BE010E947D37DF916E
:104D9000CF911F910F91FF90EF9008950E94E55FD2
:104DA0009C0180911A0190911B012817390724F466
:104DB00030931B0120931A0108950E94875C089587
:104DC0002F923F924F925F926F927F928F929F921B
:104DD000AF92BF92CF92DF92EF92FF920F931F9309
:104DE000DF93CF93CDB7DEB728970FB6F894DEBF29
:104DF0000FBECDBFA0904410B0904510C09046109B
:104E0000D0904710209048103090491040904A10A0
:104E100050904B1080914C1090914D10A0914E10DD
:104E2000B0914F1089839A83AB83BC8320916C101F
:104E300030916D1040916E1050916F106090701015
:104E40007090711080907210909073108091741017
:104E500090917510A0917610B09177108D839E83FC
:104E6000AF83B88780910010882359F40F2EF0E0AB
:104E7000EF2EF0E0FF2EF0E80F2FFFE31F2FF02DB5
:104E80000AC00F2EF0E7EF2EF2E4FF2EF1E20F2F13
:104E9000FDE31F2FF02DC601B5010E94A8E6A80171
:104EA00097010E9495EAAB01BC0189E194E022E000
:104EB0000E94B83880910010882359F40F2EF0E03A
:104EC000EF2EF0E0FF2EF0E80F2FFFE31F2FF02D65
:104ED0000AC00F2EF0E7EF2EF2E4FF2EF1E20F2FC3
:104EE000FDE31F2FF02DC201B101A40193010E9427
:104EF000A8E6A80197010E9495EAAB01BC0180E2F7
:104F000094E022E00E94B83880910010882359F480
:104F10000F2EF0E0EF2EF0E0FF2EF0E80F2FFFE372
:104F20001F2FF02D0AC00F2EF0E7EF2EF2E4FF2E18
:104F3000F1E20F2FFDE31F2FF02D69817A818B8124
:104F40009C812D813E814F8158850E94A8E6A80151
:104F500097010E9495EAAB01BC0184E294E022E053
:104F60000E94B83820914010309141104091421079
:104F700050914310A0900D10B0900E10C0900F10E3
:104F8000D090101080910010882359F40F2EF0E07B
:104F9000EF2EF0E0FF2EF0E80F2FFFE31F2FF02D94
:104FA0000AC00F2EF0E7EF2EF2E4FF2EF1E20F2FF2
:104FB000FDE31F2FF02DCA01B9010E9454E8A6019C
:104FC00095010E9495EAA80197010E9495EAAB011C
:104FD000BC0188E294E022E00E94F43828960FB6E3
:104FE000F894DEBF0FBECDBFCF91DF911F910F911F
:104FF000FF90EF90DF90CF90BF90AF909F908F90F9
:105000007F906F905F904F903F902F9008950F93F7
:105010001F930BE818E0C8016DE00E94FC5DC80119
:105020006AE00E94FC5D1F910F9108956F927F923C
:105030008F929F92AF92BF92CF92DF92EF92FF92A8
:105040000F931F93DF93CF9300D000D0CDB7DEB77F
:1050500060910111709102118091031190910411DE
:105060002FE632E143E85AE30E9495EA7B018C0186
:10507000CE01019661E870E044E050E02CE436E2B5
:105080000E949D25C801B70129813A814B815C812D
:105090000E94A8E6AB01BC0185E794E022E00E94F3
:1050A000B83886E994E00E945A37E091CE01F09139
:1050B000CF01638574858585968520E030E040E7E3
:1050C00051E40E94C0E918160CF47AC066247724D3
:1050D00043018DE790E06CE476E20E94B9257B0104
:1050E0008C01E60CF71C081D191DC801B70120E84A
:1050F00031E541E050E00E94E0EB922E832E742EC9
:10510000652E622F732F842F952F20E83EEA4EEFF5
:105110005FEF0E946BEB5B016C01AE0CBF1CC01E0D
:10512000D11E87E894E0492D582D672D762D0E94D9
:10513000A437C601B50120E13EE040E050E00E9406
:10514000E0EB122F032FF42EE52E89E994E0422F95
:10515000502F6F2D7E2D0E94A437612F702F8F2D21
:105160009E2D20EF31EF4FEF5FEF0E946BEBA60E0D
:10517000B71EC81ED91EC601B5012CE330E040E0C1
:1051800050E00E94E0EB80EA94E0BA01A9010E949D
:10519000A43788EA94E00E94E1370F900F900F90B7
:1051A0000F90CF91DF911F910F91FF90EF90DF90C3
:1051B000CF90BF90AF909F908F907F906F90089509
:1051C0000E9483E12091FD103091FE104091FF106C
:1051D00050910011621B730B840B950B28EE33E08A
:1051E00040E050E00E94BEEBC901DA013C014D01F4
:1051F00070CF1F93182FE091DD06F091DE0644A5D5
:1052000055A566A577A58CE294E022E00E94B83807
:10521000E091DD06F091DE0640A951A962A973A9CB
:105220008BE494E020E00E94B8380E94F445AB0182
:10523000BC018FE294E022E00E94B83840919801CE
:105240005091990160919A0170919B018BE494E0D7
:1052500020E00E94B838112391F082E494E061E0EC
:1052600070E00E94B5376CEF7FE0809190019091E3
:105270009101681B790B87E494E00E94B537E091B7
:105280008D01F0E0E055F74F60818DE394E070E030
:105290000E94B537E0912001EF3F29F4E091DD064F
:1052A000F091DE06E081F0E0E055F74F608183E3A6
:1052B00094E070E00E94B5370E9407281F9108957E
:1052C00080914C068823A1F010924C060E94FA505F
:1052D00080911F01815080931F01882349F48091A0
:1052E0001E01833010F40E94164985E080931F014F
:1052F00080914D06882331F010924D068BE094E1A9
:105300000E940CDF089508C00E946C590E94602919
:105310008BE094E10E946AB38091F90F8823A1F792
:105320000895CF93DF9397FD10C0EC018F3F910557
:1053300021F01CF0CFEFD0E002C0009731F0809157
:105340007A10886080937A1007C080917A10877FE6
:1053500080937A10C0E0D0E0662311F00E94832988
:105360008091B30890E0C817D90729F08BE694E044
:10537000BE010E947D37C093B308DF91CF9108959D
:105380002F923F924F925F926F927F928F929F9255
:10539000AF92BF92CF92DF92EF92FF920F931F9343
:1053A000DF93CF93CDB7DEB7E0970FB6F894DEBFAB
:1053B0000FBECDBF6C0180912902282F84FF19C038
:1053C000D6018C9182FD09C081FF13C016968D9184
:1053D0009C9117978F36910561F00E9483E160934D
:1053E000A8087093A9088093AA089093AB080C941E
:1053F0005836F6010081118102FF44C380859185F2
:105400008431910509F428C28531910550F4843026
:10541000910518F40297E0F51CC0049709F026C323
:10542000DDC18A35910509F461C28B35910540F4DF
:105430008531910509F414C24C9709F017C313C2C2
:105440008B35910509F455C28C35910509F00EC3D1
:1054500054C212FF12C0F601878D90A1A1A1B2A182
:10546000209179100097A105B10519F0822F806273
:1054700002C0822F8F7D80937910C6010E944180E7
:10548000882309F4F3C281E061E00E948076EEC2D5
:105490008091441090914510A0914610B091471012
:1054A00089879A87AB87BC87809148109091491073
:1054B000A0914A10B0914B108D879E87AF87B88B13
:1054C00080914C1090914D10A0914E10B0914F10C2
:1054D000898B9A8BAB8BBC8BC6010E944180882341
:1054E00009F4C4C2FE01319688E0DF011D928A955D
:1054F000E9F7F601828180FD05C020E030E040E060
:1055000050E007C0D60197962D913D914D915C9149
:105510009A9780910010882351F0CA01B90123E3C2
:1055200033E34BEC51E40E9495EA9B01AC012983E3
:105530003A834B835C83F601828181FD05C020E0C4
:1055400030E040E050E007C0D6019B962D913D91A0
:105550004D915C919E9780910010882351F0CA0173
:10556000B90123E333E34BEC51E40E9495EA9B013C
:10557000AC012D833E834F835887FE01759680E1F1
:10558000DF011D928A95E9F78091441090914510B2
:10559000A0914610B09147108D8B9E8BAF8BB88F2A
:1055A0008091481090914910A0914A10B0914B10F1
:1055B000898F9A8FAB8FBC8F80914C1090914D103A
:1055C000A0914E10B0914F108D8F9E8FAF8FB8A3CA
:1055D000609168107091691080916A1090916B10C1
:1055E0000E9454E820910D1030910E1040910F1040
:1055F000509110100E9495EA69A37AA38BA39CA3F3
:10560000F601828182FFC7C087A490A8A1A8B2A892
:1056100080910010882351F0C501B40123E333E3E6
:105620004BEC51E40E9495EA4B015C016D897E8947
:105630008F89988D29853A854B855C850E94A7E6E0
:105640006DA77EA78FA798AB698D7A8D8B8D9C8D6A
:105650002D853E854F8558890E94A7E62B013C0188
:10566000C501B40120E030E040E850E40E9495EA32
:10567000A50194010E9495EA7B018C016DA57EA590
:105680008FA598A99B01AC010E9495EA9B01AC01F2
:10569000C801B7010E94A7E67B018C01C301B201DA
:1056A000A30192010E9495EA9B01AC01C801B701D8
:1056B0000E94A7E60E9402EB7B018C016DA57EA5EE
:1056C0008FA598A9A30192010E94CDE99B01AC018D
:1056D00017FB109517F91095C801B7010E9488E7CC
:1056E0007B018C01A80197010E944FEB882329F0D0
:1056F0008DEA94E00E94E637B9C1D60118968D91E3
:105700009C911997039721F417FB109517F91095A1
:10571000C501B40120E030E040E050E00E9481E7A4
:10572000882344F417FB109517F91095B7FAB09435
:10573000B7F8B094C301B201A80197010E9495EA9D
:105740009B01AC016DA57EA58FA598A90E94A7E637
:1057500020E030E040E05FE30E9495EA69837A83CD
:105760008B839C836DA57EA58FA598A9A801970121
:105770000E9495EA9B01AC01C301B2010E94A8E618
:1057800020E030E040E05FE30E9495EA6D837E8395
:105790008F8398870CC069817A818B819C812D8150
:1057A0003E814F8158850E94CDE94B015C01E0E0CC
:1057B000D60118968D919C911997029709F4E1E012
:1057C000CE010996BE016B5E7F4FAE014F5F5F4F0A
:1057D00095018401EE2E0E94616648C10E948329D2
:1057E000F6018081918193FD04C0EE24FF2487019E
:1057F00007C0D6019396ED90FD900D911C91969760
:1058000092FF0DC0F601678D70A181A192A128EED3
:1058100033E040E050E00E946BEB7B018C010E9482
:1058200083E15B016C01AE0CBF1CC01ED11E04C025
:105830000E946C590E9460290E9483E1A601950193
:10584000261B370B480B590BDA01C90180509449CC
:10585000A543B74768F30AC181E08093001006C1F1
:105860001092001003C1C80188739070892B11F049
:1058700080E008C0C80156E0969587955A95E1F7F3
:105880008095817006FF08C0109240101092411060
:105890001092421010924310882321F041E051E011
:1058A00061E01DC0D6012D913C91C90188739070B3
:1058B000892BC1F0C90143E0969587954A95E1F798
:1058C000582F5170C90134E0969587953A95E1F7C4
:1058D000682F617025FD02C040E001C041E0852FC6
:1058E0000E94F58480E00E947C7BC0C01092321040
:1058F000BDC081E080933210B9C0A0906C10B09010
:105900006D10E0906E10F0906F10609070107090BD
:1059100071108090721090907310209074103090DD
:105920007510409076105090771003FF21C0F6015B
:10593000228533854485558580910010882351F058
:10594000CA01B90123E333E34BEC51E40E9495EA29
:105950009B01AC01CA01B90120914410309145105E
:1059600040914610509147100E94A7E65B017C01D0
:1059700004FF23C0D6011E962D913D914D915C915F
:10598000519780910010882351F0CA01B90123E397
:1059900033E34BEC51E40E9495EA9B01AC01CA0150
:1059A000B901209148103091491040914A1050910E
:1059B0004B100E94A7E63B014C0105FF21C0F601F8
:1059C000228933894489558980910010882351F0B8
:1059D000CA01B90123E333E34BEC51E40E9495EA99
:1059E0009B01AC01CA01B90120914C1030914D10BE
:1059F00040914E1050914F100E94A7E61B012C01C0
:105A0000B501C7019301A401710182010E945B7B72
:105A1000D6018C9186FF2AC056962D913D914D91CD
:105A20005C91599780910010882351F0CA01B90107
:105A300023E333E34BEC51E40E9495EA9B01AC0174
:105A4000CA01B9012091E9013091EA014091EB01CD
:105A50005091EC010E9495EA0E9421E86093401069
:105A60007093411080934210909343100E9483E101
:105A70006093A8087093A9088093AA089093AB0834
:105A80000C94583601FD02C00C944636F60186810E
:105A900097818337910509F4F4C68437910508F09E
:105AA00086C08235910509F40CC68335910508F04E
:105AB0003DC08931910509F436C18A319105C8F498
:105AC0008631910509F410C18731910548F484317C
:105AD000910509F4FDC0459711F00C945836FEC0AD
